:0400000080311C2807
:100008007E1480312000911E0A280B281A2823000C
:100018001D190F28102814289D1C13281428182887
:100028009D0190309D001A281908F2007E100900E1
:1000380080311E28F2017E10200080312328F03004
:100048002100990023008C018D0121008C010230D0
:100058008D0022008C018D012100951324008C0154
:100068008D01243023009E0090309D0008309F00B1
:1000780044309B0020009112210091160B178B171A
:1000880061308031572080317208803157208031AB
:100098006830F100E430890B4F28F10B4F2800320B
:1000A800442880311C28F0002000111E5C285D289F
:0C00B80058281112700823009A0008005C
:020000040001F9
:08000000FF3FFF3FFF3FFF3F00
:04000E00C40FFF1FFD
:00000001FF
