:08000000803102288731F22F44
:100E4C002000110E890C01390800F0002000111E41
:100E5C00302F312F2C2F1112700823009A0008000C
:100E6C006400800101310130FE020030FF3B7F083D
:100E7C007E04031D372F00342000911E462F472F70
:100E8C00422F23001D194B2F4C2F502F9D1C4F2FE1
:100E9C00502F532F9D0190309D0019080800F4012C
:100EAC00F3017E2F873126278731003A03195F2FF4
:100EBC00602F7E2F873142278731F4000A30740669
:100ECC000319692F6A2F7E2F0D30740603196F2FAB
:100EDC00702F7E2F700886007108870074088100BF
:100EEC000130F0070030F13D0130F2007208F307D9
:100EFC000A307406031D832F842F582F922F7008ED
:100F0C0086007108870081010130F2007208F30736
:100F1C000130F0070030F13D20307302031C972F95
:100F2C00982F852F0800F0302100990023008C01A8
:100F3C008D0121008C0102308D0022008C018D016D
:100F4C002100951324008C018D01243023009E0078
:100F5C0090309D0008309F0044309B00873126273D
:100F6C008731003A0319BB2FBC2FE72FF030F0006C
:100F7C002030F100873155278731F701F801D82F40
:100F8C00F030F5002030F6007708750786007808F9
:100F9C00763D8700010887312B2787310130F70711
:100FAC000030F83DF030F5002030F600770875077A
:100FBC0086007808763D87000108031DE62FE72F91
:100FCC00C62F6830F500E430890BEA2FF50BEA2FB9
:100FDC000032B42F80310228F0308400203085009C
:100FEC008030FE000030FF0087313627873120002B
:040FFC008731992F71
:020000040001F9
:08000000FF3FFF3FFF3FFF3F00
:04000E00C40FFF1FFD
:00000001FF
